:040000050000800176
:020000040000FA
:10000000C8430020D14A000001CA011001CA0110F2
:1000100001CA011001CA011001CA011001CA011070
:1000200001CA011001CA011001CA011001CA011060
:0C00300001CA011001CA01103FCA0110F2
:100100003C0000000000000000000000340100007E
:1001100000000000000000000100000000000000DE
:1001200000000000000000000000000001000000CE
:100130000000000008000000000000003400000083
:100140000000000000000000680100000000000046
:10015000000000000100000000000000010000009D
:100160000000000000000000080000000000000087
:1001700030000000000000000000000098010000B6
:10018000040000000000000001000000FFFFFFFF6E
:10019000FF00000001000000080000000000000057
:1001A0002C0000000000000000000000C40100005E
:1001B000040000000000000001000000FFFFFFFF3E
:1001C000FFFFFFFF080000000000000034050000F2
:1001D000E401000099A1011095A70110A5C201102A
:1001E00009B2011045B80110000000000000000035
:1001F0002E000000280000000000000000000000A9
:10020000140200000000000000000000FFFFFFFFDC
:1002100000000000080000000000000030050000A1
:100220003002000069C201106DC101101FC201102F
:1002300095BA01100000000000000000300000002E
:10024000300500005402000075C20110A9B601106B
:100250009DBF011049B60110000000000000000021
:100260003100000024000000000000000000000039
:1002700080020000000000000000000000000000FC
:100280000800000000000000240000000000000042
:1002900000000000A40200000000000000000000B8
:1002A0000000000008000000000000002400000022
:1002B0000000000000000000C80200000000000074
:1002C0000100000000000000080000000000000025
:1002D000000000000C0500200400000000000000E9
:1002E000000000002000000070010000300000004D
:1002F0001C020000140500200400000000000000A3
:10030000000000000C000000300400001800000095
:10031000400200001C050020040000000000000056
:100320000000000024000000480400001800000045
:100330000000000024050020040000000000000070
:100340000000000010000000A00100002C000000D0
:10035000CC0100002C05002004000000000000007B
:1003600000000000200000006402000024000000E3
:10037000FFFFFFFF34050020040000000000000024
:100380000000000028000000880200002400000097
:10039000FFFFFFFF3C0500200400000000000000FC
:1003A00000000000580000003C0100003400000084
:1003B000FFFFFFFF440500200400000000000000D4
:1003C00000000000100000006004000018000000A1
:1003D000FFFFFFFF4C0500200400000000000000AC
:1003E000000000001C000000AC020000240000001F
:1003F000FFFFFFFF54050020040000000000000084
:100400000000000038000000F40100002800000097
:10041000FFFFFFFF5C05002004000000000000005B
:100420000000000054000000000100003C0000003B
:100430001800000000000000000000004004000060
:10044000080000000000000018000000000000008C
:100450000000000058040000080000000000000038
:100460001800000000000000000000007004000000
:10047000080000000000000001000000304B0000F8
:100484000100000000000C0000000D00320000001C
:1004940002000000B403002000020000000000007D
:1004A40001CA011000000000000000000800000064
:1004B400000020004803002001000000D4040020B4
:1004C4000800000000000000000000000000000020
:1004D400000000000000000001000000E403002010
:1004E4000600000001000000780200200000000067
:0C04F400000000000002000000000000FA
:0F0502002A0001002500300031002E0001000109
:1005140004000000FC4A000000000000000000008D
:10052400000001000000030087C40110380500002A
:10053400380500000000000080000000800000007A
:1005440000000000D40400201F1C00002000000054
:10055400E84A0000CC4800000DC3011089130000D4
:100564008B13000099C801109BC801100000000003
:10057400F6200000C0470000D8470000A84700004C
:090584000800090001000000015B
:10059000000000000000000000000000000000005B
:1005A0001B12000081120000FD100000AB120000C1
:1005B0006111000019110000A9110000ED120000E6
:1005C0009D1B0000A31D0000A71D000008000000E7
:1005D0002400000018000000280000002000000097
:1005E0003C0000000C00000034000000DFF800F0C8
:1005F000F5C00110DFF800F049BA0110DFF800F093
:1006000025C20110DFF800F0C1C20110DFF800F0D0
:10061000E3BF0110DFF800F013C10110DFF800F0B4
:10062000D5C00110DFF800F095C00110DFF800F030
:100630000DA80110DFF800F0BDBE0110DFF800F0DA
:100640002DBF0110DFF800F0E1B50110DFF800F078
:1006500021C10110DFF800F0D5C20110DFF800F071
:10066000D9C20110DFF800F0F1C50110DFF8D000A9
:10067000007D704738B5DFF8D000DFF8C85000685B
:10068000EFF3118480F31188A8680021FFF7CAFFF7
:100690006969081AA969814238BF002084F311886A
:1006A00032BD00002DE9F041DFF89C00DFF89440F6
:1006B0000768EFF3118887F31188A0680121FFF71D
:1006C000B1FF0121A1830021E183656921682268CE
:1006D000461B801A691A884204D20020A08388F33E
:1006E00011882AE088F31188002005E04519361AA0
:1006F00029460120FFF79AFF8642F7D2EFF31188CF
:1007000087F31188E18B012903D129460020FFF7E7
:100710008DFFA16910F1010F08BF084603D0801BAF
:10072000814238BF08464119FFF784FF0120208429
:100730000020A083256088F31188BDE8F0810000C7
:10074000A401002078010020284B0000DFF80410ED
:1007500009687047284B000000F018BE80B50023E0
:1007600001223421DFF8E40901F0CEF800B10120C4
:10077000C0B202BDDFF8DC1A0A68002812BF42F0DE
:100780000100500840000860704700007047FEE715
:1007900010B582B0042001F0FBF8022818BF03282E
:1007A0000DD1032000901C234FF040520021DFF8B0
:1007B0009C0901F086F8BDE81640042066E0DFF8E9
:1007C0009419DFF8940A09680C18DFF88C19DFF81F
:1007D000980A0968B0FBF1F12046FFF713FF2046A5
:1007E000BDE81640FFF712BF80B5DFF8700900784A
:1007F000DFF8A40901688908890041F0010101605E
:1008000001F0D3F801F05DF9DFF8901900200860DD
:100810000220DFF88C190968C9688847DFF84C0A9C
:10082000016849084900016000F017FA042000F04F
:100830000FF900F0AEBC00000022012904D101280C
:1008400007D1DFF8600903E0012802D1DFF8280AA8
:10085000026810467047DFF8000A00797047000010
:1008600001F0B8B810B5DFF83C160968EFF3118451
:1008700081F31188DFF8E019C9880120012908BF38
:10088000FFF76CFF84F3118810BD000030B5DFF86E
:100890001416DFF89C390A68EFF3118182F311888E
:1008A000B0FA80F2C2F11F02D25CB0FA80F4C4F157
:1008B0001F04551EE55405D1DFF89C29136823EA6F
:1008C0000000106081F3118830BD00002DE9F04177
:1008D000FFF73CFFEFF3118481F31188DFF87C19F7
:1008E000425C531E435444D1DFF87419DFF8748915
:1008F00001EB80052E786F88300618D5D8F80010E7
:10090000096A38468847D8F80010896A3846884707
:10091000D8F80010096B38468847DFF854190120D1
:100920000860DFF8500900688007FAD514E0700607
:1009300006D5DFF8B01951F82710002088470BE0E2
:10094000D8F80010896938468847D8F80010496BF4
:10095000384688470228F8D106F03F003F2818BFE4
:10096000FFF7B4FF687800F03F003F2818BFFFF79B
:10097000ADFF84F31188BDE8F08110B508B1140013
:1009800001D1032010BD8160C26003610146DFF820
:10099000EC28DFF84C0912681018FFF74FFE002012
:1009A00010BD0000F8B50446DFF8F804DFF8AC1815
:1009B0000068EFF3118580F31188625C531C635467
:1009C000002A3ED1DFF8981801EB8407387800F050
:1009D0003F003F2818BFFFF7E5FF787800F03F00A1
:1009E0003F2818BFFFF7DEFF7E883878DFF874787D
:1009F000010613D53968C969304688473968496A9C
:100A0000304688473968C96A3046884700F038F868
:100A1000DFF8600800688007FAD512E0400606D5C6
:100A2000DFF8C01851F826100120884709E039681E
:100A30004969304688473968496B304688470128FC
:100A4000F9D185F311882046BDE8F24001F096B94E
:100A5000DFF850140A68EFF3118182F31188DFF890
:100A6000F827136803431360B0FA80F0C0F11F0049
:100A7000DFF8BC27835C5B1C835481F311887047CB
:100A8000DFF8EC1701200860704700002DE9F04FF7
:100A90004FF000080021012883B0C1468A4618BFE4
:100AA000022412D1DFF8FC03DFF834780268EFF398
:100AB000118082F311883A79012A06BF02223A7125
:100AC000012180F3118809B10624BDE0FFF78EFDF6
:100AD0000090012000F0E6F8040002D001203871F7
:100AE000AFE0FFF79BFDDFF828180190C1F80090F8
:100AF000012000F04DFF012804D1002001F01EF973
:100B00004FF00108DFF8E047DFF8505721688968A7
:100B10000020884700F0A1F8687C08B14FF0010977
:100B2000287C08B149F00209E87B08B149F00409C2
:100B3000E87ADFF82C6718B1A16AF08D096B884755
:100B4000A87A18B1A16A708D096B8847FFF798FFE2
:100B500049F02000A16A896988470120FFF70AFE51
:100B60003878C00748BF4FF0010A12D4DFF8980761
:100B700001F030F98346BBF1040FF7D000F067F8BD
:100B80008008800008600321A26CDFF87C075268AF
:100B90009047002001F026F900F05FF8A06A806B12
:100BA0008047BAF1000F0AD1A26CDFF85C075268E7
:100BB0005946904700F04BF840F0030008600120D0
:100BC000216889688847DFF8440700688006FAD5FD
:100BD000B8F1000F1CBF012001F0B0F8A16A49690B
:100BE00048468847A16A496B484688470128F9D199
:100BF000E87A18B1A16AF08DC96A8847A87A18B155
:100C0000A16A708DC96A8847FFF73AFF0020FFF795
:100C1000B1FD03203871042000F044F8DFF8F0162D
:100C20000120086000F019F801F0EAF9082000F04E
:100C300039F80446012038710198FFF703FD01F0EF
:100C40006AF90098FFF7D6FC2046BDE8FE8FDFF872
:100C5000D006DFF8CC1600687047DFF8C8060068D9
:100C60007047000038B58F48DFF874560068EFF31E
:100C7000118480F31188E888012803D100F0FEFE7A
:100C80000020E88084F3118831BD000010B5FFF723
:100C90005DFDEFF3118481F31188FFF7D7FC84F336
:100CA000118810BD38B500F02AF80818FFF7B2FC1B
:100CB000002540B9204600F008F820B1DFF86806AA
:100CC000006880470225284632BD70B500F017F84D
:100CD0000D182846FFF7BEFC0646B068204206D035
:100CE0003169F26820469047C0B2012806D03046EC
:100CF000FFF7B4FC0646AE42EFD1002070BDDFF82E
:100D00007C1509680446DFF8D805704730BF704786
:100D100070B501F071F9DFF840552E6806F00C004F
:100D20000C284BD0700727D4FFF7A4FC0446002101
:100D30000120FFF781FDA0421ED2DFF814040068F5
:100D40004519DFF814040668DFF8E0050068B0FB19
:100D5000F6F0211A2846FFF755FC2846FFF756FC07
:100D60004FF47A70B0FBF6F200210120FFF78EFEFF
:100D70002846FFF743FC23E030071FD4DFF8EC04DC
:100D8000DFF8E044DFF87C55F10601685ABF4908F6
:100D9000490041F001010160DFF88405016841F07C
:100DA000030101602020216889698847286820683C
:100DB000806B804701202860286801E0FFF7A6FFCC
:100DC00001F01EF9BDE8704001F0D0B810B50C1864
:100DD00001F012F9401E8041C00FDFF860150A686B
:100DE000002AFCD0246801220A6008B101F008F949
:100DF000204610BD80B50420FFF72AFE0820FFF72B
:100E000027FE0E20FFF7CEFDDFF82405DFF82415BE
:100E10000068C0F3815003280CBF01200020088027
:100E2000DFF8140502680AB1012002BDDFF81035B1
:100E300040221A600122C2610020486002BDDFF832
:100E4000601310B50968DFF8FC4482B009682020FF
:100E500088470F202060072341F61D5060604FF443
:100E6000C0720220009000F0C9F8DFF8DC04012114
:100E7000016001688907FCD501212161DFF8B444D4
:100E80002188012907D1002101610220202100F0E1
:100E900091F8012004E00121002000F08BF80220ED
:100EA000606013BD284B00002DE9F041DFF89C0481
:100EB000DFF8804482B0016842688A434260016181
:100EC0006068002804BFBDE8F341FFF7B8BF012800
:100ED000DFF87C141AD10220606008684BF2F5211B
:100EE00048436188000A11B10021618006E0DFF803
:100EF00064140968090210EB11204008DFF8581447
:100F00000860000C4860012088600CE002280FD1C6
:100F10000868B0F5C06F02D10020606045E0032191
:100F2000616000F06FF80121BDE8FC41002041E064
:100F300003283DD1002060600868A0F5C065A06866
:100F400000F0B2F80646284600F0AEF886422CDAE9
:100F5000A669284600F0ACF88019A061E5686069D0
:100F60007A4E85420ED0A769A7F1100000F09CF8D8
:100F700080462069103800F097F8804502DABFB249
:100F800000970BE0ADB2009508234FF47F4230216B
:100F9000304600F096FC206980B2009012234FF496
:100FA000F8020421304600F08CFCBDE8F3418AE0F1
:100FB000BDE8F38170B50D46DFF8A04382B0032190
:100FC00021600021DFF89863316031688907FCD423
:100FD00080B200900523602200F010F801203060FC
:100FE00030688007FCD5A561002020600821DFF86B
:100FF0005003C16001600120206073BD002153488F
:1010000000F05FBC70B50646504C82B030212046DF
:10101000FFF7DCFEDFF81C53C0F30720E860042173
:101020002046FFF7D3FEC0F384402861A6F5C060D8
:10103000A8602E6900F03CF88019A861A969E868E9
:10104000022909DA401E6FF03F039842B8BF1846E4
:1010500010310BD5002109E01E2908DB401C402877
:10106000A8BF3F2010392029A8BF1F21A9616861AE
:10107000082380B200904FF47F42302100F011F835
:101080000120009011234FF4003200F009F8A86904
:1010900080B2009012234FF4F80200F001F873BD03
:1010A0000421204600F00DBC002848BF4042704794
:1010B00000284CBF6FF00101022101EB4000032129
:1010C00090FBF1F0704780B5DFF87C0200210160F1
:1010D00001688907FCD40021016041600120DFF82C
:1010E000581208600E20FFF7F1FB0820FFF7CEFB37
:1010F000BDE802400420FFF7C9BB000010B504465C
:101100000020D4E90A2347F6906100F07DFF012911
:1011100028BF4FF0FF3010BD10B50C4600F0ECFFBB
:10112000011D201AB0F1004F05D8081BB0F1004F87
:1011300038BF8C4200D20C46DFF82C221268526A6B
:101140002146BDE8104001201047000000A00C40DF
:101150000C4B0000104B00002C4B00005F390020AE
:101160002DE9F04180460A46D8E90A01D8E90C4544
:10117000A0FB026701FB0277A6196F41340C002225
:1011800044EA07414046FFF7C7FFC8E90E67BDE8DC
:10119000F0814FF0FF3002BD044003404010094091
:1011A000A00100101C4B0000F8B50546DFF8BC019B
:1011B000DFF8BC610068DFF8BC71EFF3118480F3E5
:1011C0001188306840F0800030600120B9684968BB
:1011D0008847F96A096A142088472869BA68526AF8
:1011E000B0F5802F34BF0421010C012090473A68EC
:1011F0001268232100209047B968C96901208847F7
:10120000306820F4E02040F480303060306840F0F6
:101210000100306084F31188F1BDDFF860010368DC
:10122000406800220021101859417047000000005A
:1012300034390020DFF83011DFF8280110B50968D3
:1012400044684968012088476069A169BDE8104089
:10125000084700000C20084008020020F038002059
:10126000F0470000B8010010A08601008C21084062
:101270002820086028200840204B0000144B000064
:10128000F8B504460D46FFF7C8FFD4E90A673246B1
:101290003B4600F0B9FE3DB1A6FB002306FB01333F
:1012A00007FB0033C4E90C23F2BD38B5DFF8C040BA
:1012B000DFF8C4502068400840002060206840F0FB
:1012C000800020600120E062E06A2968496801200E
:1012D0008847696A096A14208847E06A31BD0000BE
:1012E00008020020F80400209001001080B500F0F2
:1012F00004F8000C40EA014002BDDFF884000068F9
:101300008BE700002C2009400040034014100940E6
:101310000C40094009B9DFF86C10FFF7A3B90000D1
:10132000242208402C200940184B0000244B0000C8
:10133000B43F0050B804002004800C4000800C40F2
:101340002C500C400C400C4034600C4028500C4099
:1013500008400C40102009403C600C4000400C400C
:1013600038600C40E40100208C010010284B000084
:1013700000200940840100108C0100100820094061
:10138000EC010020A0010000FEE7704710B5DFF877
:101390006404046814F1010F08BF002400F020FF6A
:1013A000DFF85414002008600120DFF850140860B2
:1013B000DFF84C140860DFF84C04006828B1DFF84F
:1013C00048040068204600F023F8DFF84004DFF806
:1013D000402401688908890041F0005141F005016D
:1013E0000160DFF8300401686FF31B4111430160B5
:1013F000DFF824040168C1F30131012907D1016834
:10140000DFF81824114041F400320260016010BD81
:101410002DE9F84F0446DFF8081401200860DFF8D2
:10142000040401680029FCD0DFF8FC53DFF8FC83DA
:10143000C0202860D8F80CA0D8F80810DFF8F00316
:1014400089075DBFD8F80410090C41F0F001722142
:101450000170DFF8E0130968D8F80C20C1F30461CB
:101460001629A8BF203901EB2271491C6FF009022F
:101470009142B8BF114601F01F0141F4F8510183B8
:10148000CAF3C061DFF8B00381F001010160CAF363
:10149000806181F00101816014B9DFF8A0732DE053
:1014A000DFF89C030068C0F383615FEA8A32C0F30F
:1014B0008F2021D44FEA0A4212160AD54FF6FF7345
:1014C000400804D11846490804BF01210120521CDC
:1014D000F6D4012A10DB400040F00100B0F5803F57
:1014E00021BF0120490041F00101102924BF0F2133
:1014F0004FF6FF70521EECE740EA014700F07CFD1A
:10150000401E8041C00FCF4E31680029FCD0DFF86B
:101510003893C9F810700121316008B100F070FDF6
:101520000CB9D82008E0C64A10681168C0F38700DB
:1015300001F0030140EA0120009040F2FF37002350
:101540003A462C21C14800F0BCF91CB1BC48C06A25
:101550008704BF0C00F050FD401E8041C00F316871
:101560000029FCD0C9F814700121316008B100F0E5
:1015700047FD002C0FBFB64FB148406A20F003373B
:1015800000F03AFD401E8041C00F31680029FCD0B8
:10159000C9F80C700121316008B100F031FD0CB9BF
:1015A000AC4F04E0A648AC49006A01EA000700F02D
:1015B00023FD401E8041C00F31680029FCD0C9F8CE
:1015C00008700121316008B100F01AFD0CB9A34F79
:1015D00020E09B48806AD8F80830DB07C0F303524C
:1015E000C0F303410BD4D8F804301F0502EB277277
:1015F0001B0482F3040201EB237181F3040109044B
:1016000041EA025182B242EA0107222C24BF00F0D3
:101610008040074300F0F0FC401E8041C00F31685D
:101620000029FCD0C9F804700121316008B100F034
:10163000E7FC2220222C824F06D3F86B000F00F02B
:101640000100400040F02000854908721120222C42
:1016500005D3F86B400F00F0010040F01000202C83
:1016600008724FF0000B07D3B86CC10C01F4407145
:10167000C0F3845040EA010B00F0BEFC401E8041E4
:10168000C00F31680029FCD0C9F820B001213160B9
:1016900008B100F0B5FC6020202C06D3B86C000D1A
:1016A00000F00300400040F060006D49C8728020E7
:1016B000222C06D3F86BC00E00F00100C00040F0F1
:1016C00080000870222C4FF47C4006D3F86B400D4C
:1016D00000F03F00800040F47C406249DFF888B1B0
:1016E0000880202C0AD3B86C0203810A02F47C1211
:1016F00042EA815100F00F0041EA003B00F07CFC1F
:10170000401E8041C00F31680029FCD0C9F800B0EC
:101710000121316008B100F073FC5448442101708C
:10172000882181700CB9302105E0F96BC90C01F0FA
:10173000030141F03001C1704FEA9A5010F00300EC
:1017400003D002283CD012D33CE00121042000F059
:10175000FDF843F2BD70E8638620286401206864C8
:10176000434801680029FCD0002068642EE0012075
:1017700000F00EF904462146042000F0E7F80420AA
:1017800000F006F9A042FAD1D8F800301802000A99
:1017900081B2E963000C2864012068643448016860
:1017A0000029FCD0002068644FF06022180E314BF5
:1017B0001B681B68072198474FF48060C9F8380000
:1017C000032100E00221042000F0C0F8F8692A4952
:1017D00000F03F00087047F61800284908801049BB
:1017E000274800680020286008600120254908601B
:1017F000BDE8F18F1C130050840460425C600C4013
:101800000822044380012843000120430440034090
:10181000000039014820034004000940FFFFFCFCA0
:10182000101009409402224300600C40A83F005071
:1018300056620840B812005000002043FF0F0F000E
:101840005013005000800C4008A00C4000A00C4039
:10185000000088688A766800FFFFFC00273F71005F
:1018600041A10C40DCA10C4000803F4005A10C4090
:1018700084088C43B40100100BB00C4070B00C40D5
:101880002C2009409404604238B504460D4600F00F
:10189000B3FB401E8041C00F1A490A68002AFCD0E1
:1018A000012D02D0022D02D003E0247802E024882A
:1018B00000E0246801220A6008B100F0A1FB204684
:1018C00032BD38B500EB4100102B00F5007402D397
:1018D000103B241D120C0498984040EA024500F089
:1018E0008BFB401E8041C00F06490A68002AFCD0CD
:1018F000256001220A6000281CBFBDE8314000F0CD
:101900007FBB31BD00800C4038B51D460818102D36
:10191000144602D3103D801C240C0221FFF7B4FFB3
:1019200004EA000188B2E84032BD50F8041B61B1FE
:1019300050F8042BD30744BFA9F101039A180023E0
:10194000091F42F8043BFAD1EFE7704738B5044667
:10195000E0070D4607D5A8B2009000230122002120
:101960006B48FFF7AEFFA00707D5A8B20090012390
:10197000022200216648FFF7A4FF600707D5ADB239
:10198000009502230C2200216148FFF79AFF31BD28
:101990000146042907BF1D234FF0C0421C234FF00E
:1019A00080525B483421FFF7AFBF10B5594C216816
:1019B000896801208847584801688906FCD5216953
:1019C0000968402088472169896840208847112894
:1019D000F9D110BD70B5054600F08EFB4F4C616823
:1019E000401A4FF47A714843060C00F003FC216959
:1019F000401A48BF4042711940F6B932914207D2AD
:101A0000062805DAA068E168814201D3226852B94C
:101A100043494A68D2074FF4FA6016D40868C0B246
:101A20007D21484308E0081A3E494843000C00EB7A
:101A30009000904238BF1046C82801D2C82070BD1F
:101A4000B0F57A6F88BF4FF47A6070BD10B582B080
:101A50000120009000232E4C012219462046FFF75A
:101A600030FF012000900346022200212046FFF7AC
:101A700028FF00F041FB2949886013BD80B5012093
:101A8000FFF786FF01281AD00023012234212048C5
:101A9000FFF73AFFA0B124480068804700F02CFB14
:101AA0001E498B680A68C860A2EB9202C01A1D4BDF
:101AB0005843000C0860904238BF1046086001206F
:101AC00002BD10B582B0002000900146104C0023EA
:101AD00001222046FFF7F5FE002000900146012379
:101AE00002222046FFF7EDFE1C234FF080523421E6
:101AF0002046FFF709FF10B10B4800688047074CEC
:101B000000F0FAFA606000F075FB206113BD000080
:101B100000A00C409001001014100940043900206E
:101B2000AC3F005040420F0080000010DFF800F092
:101B300049C10110DFF800F019C20110DFF800F010
:101B40000DC30110DFF800F081C60110DFF800F0CE
:101B500095B70110DFF800F08DC20110DFF800F03A
:101B60003DC20110DFF800F009C30110DFF800F0FA
:101B700045C00110DFF800F0D1C70110DFF800F018
:101B800067BE0110DFF800F021B30110DFF800F0AC
:101B900011C80110DFF800F021C801100C2811D085
:101BA000192814D01D2817D020281AD021281DD07C
:101BB000252820D02A2823D02B2826D02C2829D00D
:101BC00000207047DFF8E401006800687047DFF824
:101BD000DC01006840687047DFF8D0010068806869
:101BE0007047DFF8C8010068C0687047DFF8BC01C3
:101BF000006800697047DFF8B40100684069704709
:101C0000DFF8A8010068C0697047DFF8A00100682C
:101C1000006A7047DFF894010068406A704700B5B9
:101C20008BB00A2100A8FFF789FF0BB000BD00B5FB
:101C300081B0FEF791FDDFF87801DFF878110068D8
:101C4000884218BF00F034F8DFF86C01B0F5B26FCD
:101C500003D001B05DF804EB2BE001B000BD00B58E
:101C600081B00FF22100FFF76DFFFFF76FFFFFF765
:101C700071FFFFF773FF01B05DF804EBFFF772BF70
:101C80000000000000B581B0FEF7C8FCFEF7AEFC16
:101C900001B05DF804EB0320FFF768BF10B5044600
:101CA0000320FFF763FF2046BDE81040FFF762BF47
:101CB000FEE7FEE700B581B0FFF760FFDFF8FC004C
:101CC000C06801B05DF804EBFFF75CBFDFF8F0100F
:101CD000DFF8F00088617047DFF8EC1001280CBFD6
:101CE00040F2FF70002008600020704730B581B0DE
:101CF000FFF71CFFDFF8D4500446E88820B1FFF757
:101D0000BDFE60B10020E880FFF774F805461020A2
:101D1000FEF7C8FF012D0BD1FFF791F808E0052170
:101D200005F13000FEF76EFC05F13000FEF76EFCA9
:101D3000204601B0BDE83040FFF7FCBE10B50128D9
:101D400018D1FFF725FE012816D0FFF77FFEDFF838
:101D50007C400120E08004F13000FEF74FFC0521BB
:101D600004F13000FEF74EFC04F13000FEF74EFCAB
:101D7000002010BDFFF7A5FE002010BD10B5012406
:101D80000E2805D10120FFF703FE012805D003E04E
:101D9000DFF83C10405C00B90024204610BD002054
:101DA0007047FFF7F3BEFFF7F5BE0000F00100201B
:101DB00098CA011070472820900500007801002083
:101DC000440100200004000000000460080200201C
:101DD000F03800200068010701D50420704700F0AA
:101DE00003007047F8B505467748784C00688007CF
:101DF00005D50820A071764976480860F1BD00F04D
:101E0000F9F9754A1268002112F0030F18BF012179
:101E1000520748BF41F002010DB141F0040194F9AD
:101E20000720821A052A02DAA279914259D0A0F13C
:101E30000F0200250023002A1FD402EB0212131206
:101E4000082B28BF07231D46072D28BF0625634EF4
:101E500006EB850756F825507F687E1BF5B24F07C5
:101E600044BFC6F307277D198F0744BFC6F3074752
:101E70007D19CF0748BF05EB1665584E56F82370FD
:101E8000FEB25FEA417C44BFC7F3072C66445FEAB9
:101E9000817C44BFC7F3074C66445FEAC17C48BFFE
:101EA00006EB1766A2EB03226A434D4B1D681B68C5
:101EB000A1718032092A92412D17C5F108053427F6
:101EC000D243DBB27D436B4306EBD272B3FBF2F23B
:101ED000B2F5803F28BF4FF6FF7200F30700A280E3
:101EE000E07140480068A188206000201F2904D2CA
:101EF0001F21A18004E04908401CB1F5007FFAD2FF
:101F00000F39090940EAC100314A374908431060D6
:101F100000205060F1BD10B53448006884B224B38D
:101F200000F068F9294991F90720904205DA6FF02D
:101F30007F029042B8BF1046C8718888844201D29F
:101F40008C8010BD274A12680B68D21A921C202A76
:101F500028BF1F22231A520823FA02F42018B0F5D2
:101F6000803F28BF4FF6FF70888010BD2048006872
:101F700000B9704710B41F498A6802F04063B3F19A
:101F8000406F1ED04B689B071BD40F4B1C68096821
:101F9000C1F303511C31090114F0050F06D088422A
:101FA0000FD224F00500186010BC7047814208D29F
:101FB000100158BF44F00104500158BF44F004041C
:101FC0001C6010BC70470000000009403C39002034
:101FD00030100940FDFDA400242208409C1300504D
:101FE000B43F00500820094000FFA480341009408D
:101FF00028500940AC3F0050EFF3108072B6704794
:10200000EFF3108062B670471B4213D1094236D1FC
:102010002AB18446B0FBF2F002FB10C2704700F018
:10202000FDB8FCD30022002370470B000200002102
:1020300000207047904271EB030CF6D370B5B1FAF3
:1020400081F4B3FA83F52C1BA340C4F1200532FAC6
:1020500005F63343A2405FF00046E64002E05B082D
:102060005FEA3202841A71EB030524BF2046294639
:102070007641F4D302000B003000002170BD012A2C
:10208000CFD970B5140C20D0B1FA81F4B2FA82F530
:10209000C4F120046419B4F12006D6D3B2405FF035
:1020A0000044F440002502E052085FEA3303C61AF8
:1020B00071EB020E24BF3046714664416D41F3D38B
:1020C00002000B002000290070BD0C46B1FBF2F1AC
:1020D00002FB11452D0445EA1045B5FBF2F402FB65
:1020E000145580B240EA0545B5FBF2F002FB1052F0
:1020F00040EA044070BD000038B5FFF77DFF064997
:102100000C684D68401E8041C00F18BFFFF778FF74
:10211000280C40EA044032BD082009402D480068E0
:10212000000C00F00700032828BF4FF0FF30704775
:1021300029490968C1F30F314BF69A1291424FF0C9
:10214000FF3001D1002070474BF6BE12914201D101
:10215000012070474BF62032914208BF02207047A1
:1021600010B41D491D4B0A681B680968120FDBB2C9
:10217000802B28BF0023C1F30F314BF69A14A142E4
:102180004FF0FF300CD1012A08D0032A1DD0072AB6
:102190001DD0082A08BF03F1160013E00A2011E041
:1021A0004BF6BE14A14206D1002AF7D0022A09D16B
:1021B00003F1140006E04BF62034A14204BF002ACC
:1021C00003F10A0010BC40B270471420FAE7152052
:1021D000F8E700009412005018130050A0100050AF
:1021E00080B5FFF7A5FF18B9FFF7BAFF162800DA88
:1021F000FEE701BD0748084A816812780068C903F4
:1022000052B2A0F54070C9135043A1EB20108030AA
:1022100000127047285009400C130050704700000E
:10222000DFF800F0D9C10110DFF800F0ADB5011002
:10223000DFF800F019AE0110DFF800F041AC01103A
:10224000DFF800F0E5C10110DFF800F0CDA00110CB
:10225000DFF800F085C20110DFF800F081C2011044
:10226000DFF800F055C10110DFF800F043C20110A3
:10227000DFF800F079AB0110DFF800F0D9B60110FB
:10228000DFF800F085C10110DFF800F0EDB30110B8
:10229000DFF800F0C1C1011020B108232C22002179
:1022A000FFF738B8704720B108233C220021FFF720
:1022B000B7BF704780B5FEF799F9ADF80000FFF79A
:1022C00035FCADF80200009802BD01B5BDF8020072
:1022D000FFF730FCBDF80000BDE80240FEF78AB908
:1022E00038B5DFF86448DFF8645841F63C710020E7
:1022F0000853E820208041F65460A4F8E80004F177
:10230000E8006860002000F003F8A8606C6031BD50
:10231000F8B500240025061D16F003001CBF311D72
:102320000E1AFFF7C7FFDFF82418B6B20860112EA7
:10233000B4BF4F688F6839880B0403D581F400411E
:10234000002519E0A5B123883A88134423809BB265
:10235000B34211D327461946B7B1891B89B2042964
:10236000A7BFF15346F40041398841F4004109E028
:10237000B142F1DA01253C46CF1939880029DBD179
:10238000002701E027F8041BFFF79FFF3846F2BD46
:1023900010B50446FFF78EFFDFF8B017221F086064
:1023A00013885B045B0C13804B689A4238BF4A6009
:1023B000BDE8104089E738B50446FFF77BFF0021F0
:1023C0000C23DFF88C2703FB0125AA6C4AB1944249
:1023D00004D1FFF77AFF05F1480032BD491C0329FB
:1023E000EFD3FFF772FF002032BD70B50546FFF74F
:1023F00061FF044600200C22DFF8541702FB001195
:1024000001F14806316849B90020B060356000220A
:10241000FFF70AFF706018B900F068FC8D4204D124
:102420002046FFF752FF304670BD401C0328E3D31F
:102430002046FFF74AFF002070BD38B50446FFF77D
:1024400039FF0025DFF808170C2202FB051212885D
:1024500042B1944203D1FFF738FFA8B232BD6D1CE0
:10246000062DF1D3FFF731FFFF2032BD10B5044632
:102470002088FFF7E2FFFF2800D169E1DFF8D016DE
:102480000C2202FB00108168080002D16FF00100ED
:1024900010BD2046BDE81040084702460FF29C7070
:1024A000104710B500200C21DFF8A426002401FB02
:1024B0000023401C03289C641C65F8D300200346BD
:1024C00001FB0024401C06282380F9D3082010803B
:1024D0000FF251709060BDE8104001E770B590B008
:1024E000FEF784F8044600A8FFF7DDFE05200690FD
:1024F00000224FF44870089000A948F201000490AF
:10250000DFF850060590DFF85006FFF791FE050052
:1025100006D0FFF7CFFE06462846FFF766FF08B94C
:1025200000F0E4FB3046FFF7D0FE2046FEF762F8ED
:1025300010B070BD70B500F0E4F8FFF756FF054627
:10254000FFF7B8FEA2880021DFF804360C2606FB50
:1025500001331E883EB91A805D60A2689A60A1812D
:102560006968216165E7B24204D1FFF7AEFE6FF002
:10257000020070BD491C0629E6D300F0B7FB00BF7E
:1025800038B500F0BEF8FFF730FF050016D0FFF7B2
:1025900091FE0021DFF8B8250C2303FB01221388EC
:1025A0004BB94FF6F8731380556000239360A180F8
:1025B0006968A16015E7491C0629EBD300F096FB7A
:1025C00000BF10B5044660680C3080B2FFF7A0FE73
:1025D00000B91AE06168018100210160FF21817268
:1025E0000C30A060002010BD80B540680C3811E0B0
:1025F00080B28DE610B50446606880B2FFF788FEB1
:10260000A06000B901E0002010BD6FF0030010BD14
:1026100080B54068FFF7BCFE002002BD38B5044617
:102620000D46FFF747FE002145F80C1C216811B943
:10263000256006E0114651F80C2C002AFAD141F829
:102640000C5CBDE8324040E62DE9F04104466FF0F5
:102650000206E068A0F10C05E0880628BCBFA0884F
:1026600006280BDAFFF726FEE188DFF8E4840C2762
:1026700007FB0181496819B9FFF727FE304617E0CB
:10268000FFF723FEA0882871E0886871207AA8717E
:10269000E088E16807FB008040680830FFF7BEFF74
:1026A000E08807FB008040684068FFF7C5FD002018
:1026B000BDE8F08170B500F024F8FFF77CFE10B99A
:1026C0006FF0040070BD00F10806FFF7F3FD3168FC
:1026D000002541B10D46A5F10C010A6832600022C7
:1026E0000A60FF228A72FFF7F0FDA560A5F10C01D8
:1026F0000DB9022070BD0879A0804879E0800020E3
:1027000070BD0446FFF79CBD06280BDADFF84024B5
:102710000C2303FB0020008800281CBF4FF6F87232
:10272000904202D14FF0FF30704708800020704780
:10273000811D8088E8E710B50446E088FFF77DFE3C
:10274000FF2800D104E0E0802046BDE810407BE790
:102750004FF0FF3010BD3EB50446FFF7ABFF05005C
:1027600017D1A08800A9FFF7CFFF78B1A068029029
:102770000821ADF8041001A80321ADF80610DFF818
:10278000DC13896888476FF005003EBDBDF8000086
:10279000A08028463EBD10B5DFF8C42312680C4661
:1027A0004FF47A71A1FB00010023FFF72DFC0029F3
:1027B00002D8B0F1004F02D36FF0020010BD2060CC
:1027C000002010BD38B5FFF79CFFFFF7F4FD05466C
:1027D000FDF74CFF002818BF012800D015B96FF095
:1027E000040032BD606840B9009000996868FFF746
:1027F0002BFD401E8041C00F32BD10F1010F08BFFC
:102800004FF0FF30F0D000F050F90028EDD032BD8D
:1028100080B54068FFF710FD002002BD00F066FAA9
:1028200000BF80B54068FFF713FD002002BD80B5F2
:102830004068FFF711FD002002BD80B5FFF710FDD5
:10284000FFF712FD002002BD80B5FDF7CFFEFFF7B8
:102850006DF9002002BD10B58CB0044600A8FFF74A
:102860001BFDE02000F013F808B900F03FFA0BE080
:1028700010B58CB0044600A8FFF70EFDE06800F02C
:1028800006F808B900F032FA00200CB010BD08902C
:102890000023A168606800AAFFF7EABC10B50446EF
:1028A000FFF7EAFC6060002010BD014688684968B7
:1028B0000847F0B507468BB0BC68A84D6CBB0C2030
:1028C000FFF726FD04006FF003061ED00823242224
:1028D000002101A8FFF7D4FC0020ADF814000690F9
:1028E0000794002379689F4801AAFFF7CDFC206078
:1028F00068B90820ADF800000C20ADF8020000A86F
:10290000A96888472046FFF743FD304618E0F8687D
:1029100060603869A060BC600AE0286880470646AD
:102920002068FDF76BFE3869A0603046696888470B
:1029300079682068FDF766FE2068FDF767FE0020D5
:102940000BB0F0BD10B5044682B0606800F0ADF881
:1029500020B9009860602046FFF7ABFF16BD80B538
:10296000406810B96FF0020002BD0068FDF746FE36
:10297000002002BD7A49096841600020704750B5C7
:102980000446774802686FF00046A6FB0201002368
:102990004FF47A72FFF738FB002902D8B0F1004FEC
:1029A00000D330466060002050BD2DE9F04186B074
:1029B0000646FFF745FCFFF7FEFC044600200290A8
:1029C0000025FDF753FE002818BF012800D014B9D8
:1029D0006FF0040066E0706820B110F1010F03D1C0
:1029E0004FF0FF30009004E000F05FF85FEA00086D
:1029F00057D1FFF741FC00994FF001080F1800E094
:102A0000009000996068FFF71FFC80B303A8FFF7F0
:102A100051FE5FEA00081AD1BDF8100001A9FFF7C6
:102A200073FE80B9059ABDF81210BDF80400B368B2
:102A3000984740B1BDF80400B081BDF81200F081A4
:102A40000598306113E0059902A8FFF7E7FD0098AB
:102A50006D1C10F1010F18BF00284FF00108D0D0F5
:102A6000FFF70AFC381A02D000998142C8D2029EB0
:102A7000FFF720FC04F1080756B1314600E011468B
:102A800051F80C2C002AFAD13A6841F80C2C3E601F
:102A9000FFF71BFC002D03E06068FFF7CDFB6D1E08
:102AA000FAD1404606B0BDE8F08100A973E6F8B55A
:102AB000FFF727FE0546FDF7D9FD002818BF0128BE
:102AC0006FF0040613D0FFF7F5FB0021204A0C231A
:102AD0004B439F5A4FB19B185B681B68AB4201D1B7
:102AE000A18041E0491C0629F1D3FFF7EEFB3046F7
:102AF000F2BDF8B50446FDF7B9FD002818BF01285E
:102B000002D16FF00400F2BDFFF79AFB0546FFF714
:102B1000D1FBA7880E4A00210C234B439E5A6EB16D
:102B2000BE4208D1991849680968A9420CBF012121
:102B30000021A16018E0491C0629EDD3FFF7C5FB71
:102B40004FF0FF30F2BD00006C0500202839002056
:102B5000F43700209C0400209B240000EC0400209B
:102B60002C4B0000AB280000FFF7AFFB0020F2BDAC
:102B700070B504463C20FFF7CBFB05006FF0030661
:102B800011D0FFF790FB207AA861002260892862AB
:102B90002946E06828616068FFF74AFB044628463A
:102BA000FFF7F6FB0CB9304670BD002070BD70B564
:102BB00004462420FFF7ACFB05006FF0030613D09A
:102BC000082324220021FFF763FB2079012808BF96
:102BD0002876A06800222946FFF726FBE0602846F9
:102BE000FFF7D6FBE06808B9304670BD002070BD25
:102BF00010B5044682B0A06840B9009000996068A2
:102C0000FFF722FB401E8041C00F16BD10F1010FDF
:102C100008BF4FF0FF30F0D0FFF747FF0028EDD09E
:102C200016BD00004188292902D36FF001007047CA
:102C30000FF2140252F82110084700006D24000022
:102C4000B5220000CB2200003525000081250000C0
:102C5000C3250000E9250000F5250000112600002D
:102C600049260000B526000037270000572700003E
:102C7000C5270000112800001D280000232800009F
:102C80002F2800003B28000049280000572800009A
:102C90009D28000045290000752900007F290000BB
:102CA00031270000AD44000075450000AB2900004D
:102CB000AF2A0000B32800005F2900000F45000084
:102CC000474500005B450000F32A0000AD450000C9
:102CD000C9450000712B0000AF2B0000F12B000054
:102CE000BF450000D745000071280000012000F01A
:102CF00001B800002021090326311820ABBEF9E7F6
:102D0000DFF800F03DC10110DFF800F029AF01103D
:102D1000DFF800F009B70110DFF800F079B5011015
:102D2000DFF800F061C20110DFF800F0E1C201102D
:102D3000DFF800F0B9C20110DFF800F0F9BF0110B0
:102D40008069C00800F00100704750F8382F114327
:102D50000160704750F8382F22EA01010160704786
:102D600041647047406800F00F00704700214160E7
:102D70007047817BFF291CBFC07BFF2801D0012049
:102D800070470020704738B5FEF7D0FEDFF8B45723
:102D90000446287820B90420FDF75AFE0120287047
:102DA0000CE038B5FEF7C2FEDFF8985704462878E5
:102DB00020B10420FDF76AFD002028702046BDE800
:102DC0003240FEF7B7BE40687430FFF735BA40684E
:102DD0009030FFF731BA70B5446885680E4606E05A
:102DE000206A401C2062761E606A401C60624EB100
:102DF000206ADFF8542712680178286892699047A2
:102E00000028EDD1304670BD70B5456886680C4627
:102E100008E0296B0870641E286B401C2863686BEF
:102E2000401C686344B1DFF82017096830680969FD
:102E3000884710F1010FECD1204670BD70B50446F3
:102E40006568A668FFF7ADFF00F0E2FAD7E270B55B
:102E5000446804F1AC050E462846FDF7CFFB0FF29F
:102E60004871627F207F51F822100818C01D7043FE
:102E7000DFF8D8164843A169B0FBF1F0DFF8D016AF
:102E800009686430B0FBF1F12846FDF7BBFB28462A
:102E9000BDE87040FDF7BABBF8B504466568A668A2
:102EA00005F1AC073846FDF7A9FB3068FFF748FF8E
:102EB00088B1DFF89C1609684FF4FA70B0FBF1F1A5
:102EC000022938BF01213846FDF79CFB3846BDE892
:102ED000F240FDF79BBBFFF764FF30682021FFF74E
:102EE00039FF00F031FA25E270B504460D46202185
:102EF0002868DFF86066FFF72DFF297B3068012224
:102F000000F002FD297B3068012200F01AFD297BC8
:102F10003068002200F03CFDA97B3068002200F000
:102F200037FDA078012805D12868FFF709FF0028A0
:102F3000FAD105E04FF0FF3104F17400FFF784F996
:102F4000297B3068102200F023FD2846FFF711FF8F
:102F500030B1A97B3068BDE87040112200F018BD87
:102F600070BD2DE9F8438146D9F808603068D9F87A
:102F70000470046C2146FFF7F3FE14F4F06F07F1C0
:102F800028052DD0600510D53068FFF7EBFE804690
:102F90003068FFF7EBFE2969212928BF202100F0C6
:102FA00050F817E02869401E2861286990B1012176
:102FB00000F047F83068FFF7D5FE80463068FFF72D
:102FC000D5FEB8F1000FEDD0A868401EA860E868F3
:102FD000401EE86087F81F80484600F0F9F91FE0BE
:102FE00060060BD5296900F02CF82861687910B1CA
:102FF0000020286111E0286900280DE0E0060FD5C7
:10300000287D471E2869874228BF0746394600F0B9
:1030100018F82869C01B286102D14846FFF70EFF47
:10302000A0060CD52C6854B121464846FFF7D3FEC4
:10303000286020B9211D4846BDE8F44307E7BDE8F4
:10304000F1834846E0E64068002101700020DFF887
:10305000F41408707047F0B504466568A76897B027
:103060000E46FEF763FD297800294CD10121297015
:10307000FEF760FD1EB90DA800F0CEFC0DAE307855
:1030800068707078A87070686860B068A860F06850
:10309000E86030692861307D2875707D6875B07D85
:1030A000A875B069A861307F2877707F6877B07F96
:1030B000A87700202862286368626863A862A86312
:1030C00085F82C0085F82D00102085F83C000020A4
:1030D00085F83D00B868C0B2FDF764FC204600F0FA
:1030E000A0F9204600F0F2F988B9DFF85C1409680D
:1030F0003868C9688847B868C0B2FDF7E7FBFEF7D3
:1031000015FD00212970FEF715FD00204DE0082374
:103110003022002101A8FFF7F3FD00200694009063
:1031200001AB7968DFF8302405F15800FFF7ECFDBA
:1031300008232422002101A8FFF7AAF801208DF816
:103140001C00A87840B901AA002105F17400FFF71E
:10315000DFFDDFF808042861687840B901AA002182
:1031600005F19000FFF7D4FDDFF8F403E8600823D1
:103170002422002101A8FFF783F800200690ADF873
:103180001400079401AB0A22DFF8D81305F1AC0054
:10319000FFF7C2FD0020009023460FF2D932042130
:1031A00005F14400FDF7E9FB204617B0F0BD38B546
:1031B00044688568DFF89C03006800F098FB286885
:1031C00040F2F271FFF7C6FDDFF87C13096828684A
:1031D000C9688847A868C0B2FDF778FB04F15800B9
:1031E000FFF79EFDA07818B904F17400FFF79CFD6D
:1031F000607818B904F19000FFF796FD04F1AC0077
:10320000FFF796FDFEF792FC00212170FEF792FC7D
:1032100004F14400BDE83240FDF738BD4268202982
:103220006FF0010002D0212905D07047012082F8FB
:103230002D0000207047002082F82D0070472DE9F6
:10324000F84304466668A7680D469146FEF76EFC93
:103250008046B06A18B14046FEF76CFC38E006F1D3
:10326000AC00FDF7CBF90020F07735627062404684
:10327000FEF760FCFFF787FDBB48016841F48071F1
:10328000016020464946FFF7A6FDB06248B94946AD
:103290002046FFF7DCFDB078F8B900F021F8D0B98E
:1032A0000DE038682021FFF750FDB078A8B900F094
:1032B00017F880B949462046FFF7C9FD0020B062E3
:1032C00039461020F0773046FFF70EFEFFF769FD14
:1032D0004FF0FF3002E0706A00E00020BDE8F283AA
:1032E000B16806F17400FEF7AFBF6EE0F8B500F00C
:1032F00093F80746A86A40B93068FFF721FD20B966
:103300003846BDE8F240FEF715BC0020A8623846FA
:10331000FEF710FC3046FFF72CFD18B13146284669
:10332000FFF7E2FD30682021FFF714FD00F00CF8F4
:10333000FFF737FD6A6A286A2B69811A29622046DD
:1033400001B0BDE8F04018478748016821F480715A
:1033500001607047F8B5446885680E461746FEF769
:10336000E5FBA16B21B1FEF7E5FB4FF0FF30F2BDAD
:10337000E1776163A7632663FEF7DCFBFFF703FDDC
:103380007948016841F4007101604FF4FA612868DE
:10339000FFF7DBFC6078A8B9616804F19000FEF7E4
:1033A00053FF68B9A0634FF4FA612868FFF7D2FCB5
:1033B000FFF7F7FC206B616B401A20631020E07769
:1033C000606BF2BD0020F2BD00BF4FF0FF307047D0
:1033D00070B500F021F8A96B002904BFBDE870406A
:1033E000FEF7A8BB0021A963FEF7A4FB00F010F8CC
:1033F0005D48016821F400710160FFF7D2FC6A6B3F
:10340000286BEB68811A29632046BDE87040184795
:1034100030684FF4FA619DE404466568A668FEF7DB
:1034200085BBF0B587B0044602A80FF25811464E8E
:10343000142200F01FFB6568A46831682068C96821
:10344000884740F2F27720683946FFF783FC20680E
:103450003946FFF785FC05F13C0002AA4178007867
:10346000C00852F8200008432168486300A8FFF70D
:1034700063FC05F118000FF22011027951F82210B7
:103480000FF22412437952F82320837935686D684E
:1034900011430FF21C1252F8232042EA0103026882
:1034A00001992068A847314D286840F01000286035
:1034B000686840F0010068602046FFF75AFC18B1C8
:1034C000686840F44040686007B0F0BDF0B58468BB
:1034D000274D607B85B040F00040009000AE207B1F
:1034E0002843706008272046FFF743FC38B1A07BD3
:1034F00040F00040B0601027E07B2843F060FF20E0
:10350000B85100A9134D281D00F08CF92860B8B1FE
:10351000617B0F2200F03CFA217B2868102200F02A
:1035200037FA2046FFF725FC48B1A17B2868112215
:1035300000F02EFAE17B2868122200F029FA01201F
:1035400005B0F0BD5E390020D001001040420F00F0
:103550002C4B000018390020632F0000C72D0000FD
:10356000CF2D0000992E0000301000402C1000409C
:103570000000C0A080B5042804BF0846FFF751FF33
:10358000002002BD00000000080000001000000044
:1035900018000000200000000000000020000000D3
:1035A0004000000060000000000000000800000073
:1035B000000000000600000002000000860000007D
:1035C0008200000090FAA0F0B0FA80F0704780B559
:1035D000DFF8EC030068FFF7F5FF0121DFF8E423D3
:1035E000814011600121DFF8E0231160DFF8DC1376
:1035F0000A6890420BD201EB80014A683AB1136825
:10360000190004D0C1B21046BDE80440184701BDFE
:10361000F8B50D00ECB244BF85F0204585F4C045F7
:10362000A10001F1804101F5012100EA05060A68C7
:10363000DFF89C733E4085EA020382433243034035
:1036400000F4E0261B0EB6F5E02F03F0010302D1D3
:10365000D30105D411E010F4E02F08BF002B0CD0EB
:1036600002F4E023B3F5A02F04D0B3F5C02F04D1AA
:10367000052300E0062363F312420A60410205D5E8
:10368000A90DDFF8502301F00101115500020ED5FC
:10369000FEF74CFA00F050F92C024CBF1C460024F7
:1036A0009A4322430A60BDE8F240FEF743BAF1BDF7
:1036B000002948BF0021800000F1804000F5012072
:1036C00001F03F010268920941EA821101607047EE
:1036D0002DE9F04F97B08146FEF72AFD002501281D
:1036E00004D1FEF71BFD022808BF0125DFF8E80220
:1036F000C168C1F3815101294FF0010A04D100686A
:10370000000E0AFA00F00543DFF8D002DFF8BC62D1
:103710000078DFF8CC020068C0F346003060FEF7A6
:1037200007FD012802D13068401C30603168DFF8A5
:10373000B47219B1FF22384600F0C8F94FF0000802
:10374000002405E0CC550AFA00F040EA0808641CA1
:1037500059F82400C1B2FF2908D03268914203D23F
:1037600025FA00F2D207EDD5022058E00920FDF736
:1037700019F9C6F880900823242200210DA8FEF72D
:1037800087FD8DF84CA00DAA012106F1A000FFF7DE
:10379000BFFA0024DFF850A20BE05046FFF738FFD5
:1037A0004FF0FF31E0B2FFF783FF0020CBF80400B9
:1037B000641C3068844212D225FA04F0C00706EB7C
:1037C000840B48BF0420F1D428FA04F0C00747BF97
:1037D000E05D59F82010E0B240F4C041DDE7082375
:1037E0003022002101A8FFF78BFA0020009001ABE6
:1037F000DFF8F821102106F18400FFF785FADFF8E1
:10380000F001016821F47C5141F400510160012074
:10381000DFF8E0110860DFF8E0110860002017B061
:10382000BDE8F08F2DE9F041DFF8A06104460D46B8
:1038300006F1A00800F032F800273DB90020206012
:103840006060A06000271DB31EE07F1C15F82700F4
:10385000FF28F3D03168884204D206EB800040682C
:103860000028F2D0002413E006EB800101224C6016
:1038700002FA00F0616808436060204655F827208E
:10388000594900F071F87F1C15F82700FF28EBD18B
:103890004046FEF7D1FC2046BDE8F0814FF0FF31F5
:1038A0004046FEF7D1BC10B50C46F0B1416821FA94
:1038B00004F2D20719D50122A240914341600020B1
:1038C000424901EB840250604648225C4648FF2A88
:1038D0000EBF44F02041D1F8801051F82210FFF7BC
:1038E00097FE4FF0FF31204661E0022010BD10B579
:1038F000044605E0FFF766FEC1B22046FFF7D3FF9E
:1039000060680028F6D110BD38B50C462F49154621
:103910000A68944204D201EB84014968814201D0D3
:10392000022032BDFEF702F900F006F89A4305FACC
:1039300004F31A430A603EE030490A680123A340B9
:10394000704710B5214B1C68A14204D203EB8103E0
:103950005B68834201D0022010BD10001D4A18BFD1
:1039600001205054002010BD38B5184C25680B4676
:103970001146CAB2AA4204D204EB820252688242C1
:1039800001D0022032BD1846FFF742FE002032BDB2
:103990000B4610B511460D4A1468A34204D202EB3F
:1039A00083025268824201D0022010BD1846FFF700
:1039B0007FFE002010BDFEF7BDF8002032BD0000E4
:1039C000E0200240E020026080E200E03837002082
:1039D000007F077F00200240A83F00505F39002091
:1039E00080120840B8380020007FC767CF3500003C
:1039F000003009400C40094008000940D020024036
:103A000003685B681847034A0C2303FB0020026825
:103A1000D2681047044900000FF21401242200F07C
:103A200029B803681B6918470368DB691847000059
:103A300000000000FFFFFFFFFFFFFFFF000000008E
:103A4000000000000101010100C2010003000000AC
:103A50000000000062B38B0708D0521E11F8013B32
:103A600000F8013B00F024808B07F6D1830740F07B
:103A7000208000BF103A07D330B4B1E83810103AB4
:103A8000A0E83810F9D230BC530724BFB1E80810C1
:103A9000A0E8081044BF51F8043B40F8043BD207AB
:103AA00024BF31F8022B20F8022B44BF0B7803709F
:103AB0007047083A07D3B1E80810083A40F8043BC9
:103AC00040F804CBF7D25307E4E7000062F30F227B
:103AD00062F31F4200B500BF1300964694461039AA
:103AE00028BFA0E80C50FAD85FEA417C28BF0CC080
:103AF00048BF40F8042BC90728BF20F8022B48BF55
:103B000000F8012B00BD0000DFF800F025B1011026
:103B1000DFF800F0B5C10110DFF800F0A9C1011015
:103B2000DFF800F021B9011000B583B000F00DF806
:103B3000032114E0E0B500F008F8042100F012F8C9
:103B400008B100200EBD02980EBD0821ADF800108E
:103B50000190704700B583B0FFF7F7FF052100F033
:103B600001F807BDADF8021000A8DFF86813096876
:103B700008472DE9F04184B0DFF85843DFF8585387
:103B8000DFF85883DFF858730FE0B869FEF754FB8D
:103B9000B888410709D54FF6FB710840B880F8682E
:103BA000FCF738FD08B900F0B5F8B8694FF0FF31FF
:103BB000FEF74AFBD8F800008047FA883B89B988AD
:103BC0001A437B891A431143B9800021F980398156
:103BD000798129688847B888010603D54FF67F7137
:103BE0000840B8800820ADF800000920ADF80200B8
:103BF00000A821688847002801BF029EBDF8060082
:103C0000798888421CD1396A080007D07878012861
:103C100002D0022839D001E03046884730461BF0F8
:103C20000AFA06460C20FFF785FF0146002E18BF52
:103C3000002905D08E60F868FFF76AFF00F06AF887
:103C40003879C00627D5F868FCF7E4FC98B91BF072
:103C500056FB80B9F868FFF75FFF06000BD0B1682C
:103C60004868786149881BF081FBB068FFF772FFF4
:103C70003046FFF76FFFF868FCF7CCFC40B1B8881E
:103C80004FF6EF710840B88005E030468847D7E727
:103C9000B869FEF7D1FA387980070DD51BF0FEF927
:103CA0001BF0D5FB28B9B8884FF6FD710840B880E5
:103CB00002E0B869FEF7C0FA3879000729D53869FB
:103CC000FFF72AFF060019D0F96978880A001CBF9F
:103CD0003A78002A0CD0022A01D002D30BE0B06857
:103CE00004E0B16800F08AF8B068F969884702E03A
:103CF000B16800F083F83046FFF72CFF3869FCF715
:103D000089FC00283FF441AFB8884FF6F7710840AE
:103D1000B8803DE7B88840F01000B880B869FEF779
:103D20008BBA10B56E4C0020A080606186B0002177
:103D3000FFF7F6FEE06000210846FFF7F1FE206184
:103D40000820ADF800000020ADF802003820ADF8E2
:103D5000040000205F490968029000A88847BDF868
:103D60000C0060800498A0610FF2ED001BF059F97F
:103D70000FF279120FF23D110FF2BD001BF0A8FAFD
:103D8000FFF7F7FE06B010BDCBE730B5554C20600D
:103D90004FF400758FB0DD22294604F15400FFF77F
:103DA00095FE08233C22002100A8FEF739FA04F111
:103DB00054000790089502200690002300AA4A4963
:103DC000201DFFF7A1FE0FB030BD10B51BF033F979
:103DD00004460C20FFF7AEFE002C18BF00280CD0C4
:103DE0008460217849B93E4C0146E068FFF790FEB7
:103DF000A08840F01000A08028E010BD30B585B04C
:103E00000C46ADF80400082136480068ADF80600FD
:103E1000ADF8001000208DF80800ADF802106068C1
:103E20002C490968039000A8884705462046FFF7FB
:103E300091FE284605B030BD10B5294C606918B117
:103E4000FFF772FE002060610420E080A069BDE8F9
:103E50001040FEF7F1B90000F8B504460D461646CD
:103E60000C20FFF767FE07460820FFF763FE002FD0
:103E700018BF00281CD045604480B8607EB900217E
:103E8000174C017039462069FFF742FEA08840F0C8
:103E90000800A080A069BDE8F240FEF7CDB9FFF7A9
:103EA00059FE3846FFF756FE2846BDE8F2403BE68D
:103EB000F1BD000010B504461BF0D9FA844208DABF
:103EC000A0B21BF09DFA064802214181BDE81040D6
:103ED00012E0FEE7F4040020F0040020EC040020CF
:103EE00094380020042E0020893D0000004801E0A5
:103EF00094380020802101818069FEF79DB900007F
:103F000010B5504CE0628AB02163A26200A8FFF7AE
:103F100083FD4FF4E130069000A900208DF81500D4
:103F20008DF8160003208DF81C0000208DF81D0070
:103F300001208DF800008DF8010000208DF8170099
:103F40000FF23D0003900FF21D0004900020FFF7D8
:103F50005AFD606200222021FFF752FD00F044F874
:103F60000AB010BD10B5384800688047044635488F
:103F7000826A110002D0418C0020904740E000008E
:103F8000F8B500F05AF8144680470546CCB1318C9C
:103F9000002089B2B1F5877F09DAF76A835DCB55D6
:103FA00000228255401C491CC0B2A042F1D3844279
:103FB000318406D0B26A100009D0718C4FF487703A
:103FC0009047B26A100002D00021A0B290470020B2
:103FD00030842022706A3146FFF723FD2846BDE871
:103FE000F4401A490968084710B517480068804727
:103FF00004461449002008842022486AFFF711FD76
:10400000204612490968BDE81040084770B50446CB
:1040100000F013F880470546316B706A74842246BD
:10402000FFF702FD094910F1010F04BF0020708461
:10403000096828468847708C70BD0348014E0068A7
:104040007047000060380020EC040020F0040020DD
:10405000E0B50821ADF8001001900221ADF8021082
:1040600000A88A490968884708B100200EBD029857
:104070000EBD00B58FB008233C22002100A8FEF73A
:10408000CFF8834800F15001079100234FF42171CC
:10409000089100AA012106910FF2A901FFF734FD52
:1040A0000FB000BD10B584B00820ADF800000120AD
:1040B0007649784C0968ADF8020000A88847BDF839
:1040C0000400A08100F088F9A089C0B21BF0DBFADF
:1040D0001BF0ECFA20461BF0BAFB4FF0FF301BF050
:1040E000F9FA4FF0FF301BF0DBFA608900F00C01A9
:1040F0000C2903D10A220FF2A0210DE0010703D5FC
:104100000E220FF2A02107E0400747BF11220FF255
:10411000A4210E220FF2B02104F11000FFF7AAFC37
:1041200004F1100000F05AF9C1B204F110020020AD
:104130001BF0D3FA04F10E02022101201BF0CDFA8C
:104140001FBD000030B585B0FFF7ACFF4F4C082015
:10415000ADF800000A20ADF802004FF0FF300190EA
:1041600000A8216888470028F1D10820ADF8080090
:104170000920ADF80A0002A821688847BDF80C1094
:10418000BDF80E20049D0028E1D1102902BF41484E
:104190008089824205D12878912804BF284600F002
:1041A0000BF80820ADF800000320ADF802000195DF
:1041B00000A821688847CAE730B5374A4478138891
:1041C000811C0E2C83B04FF6FF7506D00F2C10D03B
:1041D0003E2C3AD0FF2C4DD037BD8488A3424CD022
:1041E000836830F8040CA0F10C02D2B221460E20F4
:1041F00049E08488A34240D042F23200844244D154
:104200000D780F20FFF724FF00283ED00421017015
:10421000FF2141700721418000F108014160042124
:10422000426811700F2142685170042142689170F8
:104230004168CD7001214268117141684C71210AB9
:1042400042689171FFF7C1FD37BD09780C291CD177
:104250008DF8001000A9C2784A7082888A7082881E
:10426000120ACA7082790A71C0794871062000F07A
:104270006AF837BD4C88A34201D1158037BD8368E9
:104280000A782146FF2000F009F837BDF404002029
:10429000302B002074040020680500202DE9F04236
:1042A00081460C461546B9F1FF0F05F10B0014BF0E
:1042B0000321022108181E46C0B2FFF7C9FE0700FD
:1042C0003FD004203870FF20787007F10800786034
:1042D000042079680870786880F80190200A79686D
:1042E000B9F1FF0F10D0EA1C8A7001217A68D170F1
:1042F0002A4679680C717968487131467868801D62
:10430000FFF7A8FBA81D15E0AA1C8A707A6831780F
:10431000D1707A68717811717A68B1785171EA1E3A
:1043200079688C717968C871F11C78680830FFF77A
:1043300091FB681DC0B278803846BDE8F042FFF7B7
:1043400044BDBDE8F08270B5044604F10B000D4693
:10435000C0B2FFF77DFE06001CD004203070FF20A5
:104360007070E01C708006F10800706004207168B5
:1043700008703E2071684870706884702CB1706855
:1043800022462946C01CFFF765FB3046BDE8704059
:10439000FFF71BBD70BD0000544920424C45204131
:1043A0006C6C0000544920424C452043656E747289
:1043B000616C0000544920424C4520506572697080
:1043C000686572616C000000544920424C452055DC
:1043D0006E6B6E6F776E00007047000000F1010396
:1043E000810704D010F8011B89B18107FAD1026856
:1043F000B2F10131914311F0803F04BF50F8042F16
:10440000F6E710F8011B11B110F8011BFBE7C01A09
:104410007047000080B501280BD002280BD004287B
:1044200002D0082809D00AE000200A68904700203E
:1044300002BD0220F9E70420F7E70520F5E7FEF7C3
:1044400055FC00BF38B50446012504E005FA00F02C
:10445000C0B2FCF7FDFAB4FA84F0202800D131BDD7
:1044600000F01CF8F2DB401FC0B2FCF79BFAF2E749
:1044700038B50446012504E005FA00F0C0B2FCF7A7
:1044800005FAB4FA84F0202800D131BD00F006F816
:10449000F2DB401FC0B2FCF719FAF2E7C0F11F00CF
:1044A000C0B205FA00F14C400528704738B50079D4
:1044B0003C4CA8B1FDF7FEFE05462078FF2805D14B
:1044C0002846FDF702FF6FF0060032BD401C207049
:1044D000C0B2012804BF6068FFF7B4FF284612E0AD
:1044E000FDF7E8FE217821B9FDF7EFFE6FF0070038
:1044F00032BD491E2170C9B229B9FDF7E6FE6068D8
:10450000FFF7B6FF01E0FDF7E0FE002032BD70B519
:104510000446606810F07F4F02D06FF0020070BD5B
:10452000FDF7C8FE1F4E0546307828B17068FFF7CA
:104530009FFF6068FFF786FF606870602846FDF7A0
:10454000C4FE002070BD80B5406810F07F4F00D0E1
:104550000DE0FFF777FF002002BD80B5406810F046
:104560007F4F00D003E0FFF783FF002002BD6FF014
:10457000020002BD1CB50446A168606808601420F2
:10458000FEF736F8019010B96FF0030016BD002059
:1045900000900F21A3680198034AFCF7EEF9002070
:1045A00016BD0000040500201544000010B50446A7
:1045B000FCF758F900B101202071002010BD80B532
:1045C000FCF750FB002002BD10B50446FCF743F990
:1045D0006060002010BD10B504466068FCF740F92B
:1045E000A060002010BD816807E002681168536870
:1045F00089185B18C36008320260C2689142F4D027
:104600004A1C82600878704738B504460D46A06899
:10461000E168884212D120686168884208BFFEF7CD
:1046200065FB2068227C016802B14944A1604268B0
:104630005218E260083091422060ECD0A068401C23
:10464000A06000F8015D31BD2DE9F0418AB000F1B4
:10465000080105910268520801EBC2010691002190
:10466000079108910168490800EBC10108310091E8
:10467000017901F001018DF810104068009940089F
:1046800001EBC000019000200290039084E005A897
:10469000FFF7A9FF044614F0030603D105A8FFF7AE
:1046A000A2FFC61C25090F2D1BD105A8FFF79BFFF4
:1046B00000F10F0515E005980168081805990790A5
:1046C00049680818089005980830059007980899D7
:1046D0008842F0D0401C079010F8011D00A8FFF799
:1046E00093FF761EF2D1002D51D005A8FFF77BFF76
:1046F0000646A00800F00300032804BF05A8FFF742
:1047000072FFDDF800800299039F06EB002008E0AD
:10471000A8F10808A8F10801801A0A6849688F18EA
:10472000394658F8082C8A1A8242F1D30C1AAE1C6A
:104730002DD0BC4206D158F8044B58F8040B071989
:10474000BC42F8D00298039914F8015B884217D153
:1047500000980199884208BFFEF7C8FA00980068DF
:104760009DF81010029009B14844029000990298F7
:104770004968009A09180832884203910092E7D0EC
:104780000298401C0290761E00F8015DD1D102987B
:10479000039988427FF47BAF0198009981427FF4AE
:1047A00076AF0AB0BDE8F0817B756E6B6E6F776E89
:1047B0002D696E7374616E63652D6E616D657D002C
:1047C0007B656D7074792D696E7374616E63652D90
:1047D0006E616D657D0000007B7374617469632D8B
:1047E000696E7374616E63652D6E616D657D000029
:1047F0008F3F00008F3F01008F3F02008F3F03007B
:10480000903F00018F3F0101903F0002903F000365
:104810008F3F01048F3F00058F1208048F3F000473
:104820008F3F0006513F00007F3F01003F3F0400E3
:104830003F3F02003F3F01007F3F0200DFF800F0F2
:1048400055C0011038B5124C1248134DFEF740FF09
:1048500023681B6801220121284698472268526874
:104860000121284690470420FCF7F2F80820FCF7C5
:10487000EFF8FDF716FEFDF731FEFFF7FAFB10200B
:10488000FFF783FAFFF7DAFF002032BD00000000D7
:10489000D8010010C402002000400340EBC70CEE1A
:1048A000C90CF1CB0CF44B14F74E19FA521DFD58FC
:1048B0002500613101144202184E031C5A0424934E
:1048C000053093009C4800000D0700007FC80110D0
:1048D000C9BC011051B2011037C20110BDAD0110A9
:1048E000C1B10110E907000071BA011069BB0110E4
:1048F00021C001100010004015000000060000005B
:104900000302FFFF1C490000A0350020F44800000E
:10491000000000000000000000000000AF310000B7
:104920001D320000473000005730000055330000B2
:10493000C9330000D13300003F320000EB320000E9
:10494000ED32000010B5074979441831064C7C441B
:10495000163404E00A68081D511888470146A14230
:10496000F8D110BD080000000C010000BFCFFFFF10
:1049700004000000EC01002008000000F00100200D
:1049800008000000F8010020F43300006C0500204E
:1049900000000000B5FCFFFF020000000200000064
:1049A000D401000019000000780100202C00000054
:1049B00099FCFFFF0200000002000000D10100008E
:1049C0001A000000A4010020240000007DFCFFFF6D
:1049D0000200000002000000CF0100000C000000F7
:1049E000C80100201C00000061FCFFFF0200000065
:1049F00002000000400100001C0000000001002037
:104A00004400000045FCFFFF02000000020000001F
:104A1000AB010000060000000002002004000000BE
:104A200029FCFFFF0200000002000000240100003A
:104A30002400000044010020340000000DFCFFFFB2
:104A400002000000020000006B01000008000000EE
:104A5000E401002008000000F1FBFFFF020000005D
:104A6000020000005D010000AF010000080200200C
:104A700062030000DFF800F059C501100548012865
:104A800008BFFDF7D4B870470348012808BFFFF7F7
:104A9000F1BF7047010000000100000000F00BF8BA
:104AA000002803D0FFF74EFFFFF7EEFF0020FFF7CF
:104AB000C9FEFDF75FF80120704700B581B0FFF730
:104AC000DDFFC046C04601B05DF804EBFFF7E6BF6E
:104AD00044F2C830C2F20000854644F6BB20C0F262
:104AE00000008047FEE70000010000000000000019
:104AF00000000000000000000100000045B50110AA
:104B0000CD1C000099A6011019B80110100000007A
:104B100050000000080000008F0700004B0000005C
:104B20006400000082000000200000000A00000075
:104B3000110D000083010001A10CD00344040020EA
:104B400000014364051420023401002004523C0497
:104B500012000110035C3900205404125804211083
:104B600013C83F0822040A4006002001010000701B
:104B7000361861046200011002030020E4041201EF
:104B80000BC3010001100318020020580422000189
:104B900050026CDC020001500364030020030C107F
:104BA000035F1C00009D04F30101000120021404B6
:104BB000002008220001000103002000020800007C
:104BC0000012000112010420021002002004123819
:104BD00004D0039C0100200001438D0708125820D7
:104BE000F30118022043ED1C08213C214413102737
:104BF00054422714216052914012781C527840523E
:104C0000013C620445400302000090321CE0020BAC
:104C1000C2011064D201101003190880801B041215
:104C2000070412060410030B2000C01304120C0426
:104C3000120F0412120410070D0080800400C080BF
:104C40000504120E04120304F202FF5043C5A70824
:104C500083B51C6EC004CC030020C5A774C3C5A7D0
:104C600008E34002A0100101005C382104F1031C9C
:104C700012781821041207DE100B384035002D4041
:104C80000140028460005D08601D00F80118A384E3
:104C9000070083057EA40306E0EA2306010088607E
:104CA0004500C3003801FFFFFFB7100400A90E0044
:104CB000000308B001FF002C9C6335121832141059
:104CC00012E468210483A50624120504E5BD433CD3
:104CD00004131214082104521C04522404522C04FC
:104CE000523404523C04524404524C045254045270
:104CF0005C04526404526C04C176F3071100011481
:104D000002080A1B00A9100120C448D011D11003C9
:104D1000443900204804872C014AF1030512CC1BBA
:104D200012080843B0246C438006101003B522001B
:104D300000CB0414036D240000D9E040043D1D00A5
:104D4000009F1D34251B20020C0500200452140472
:104D5000521C04522404522C04523404523C045277
:104D60004404524C04525404525C0429E803FFFFEB
:1080000038B504460D4614F06BFE0848216801603F
:1080100061684160A168816014F0A2FC12F0D5FA99
:108020002846BDE832400AF0C1BD00BF1448002018
:10803000DFF800F0A1940010DFF800F04195001087
:10804000DFF800F071950010DFF800F0D195001016
:10805000DFF800F03D970010DFF800F065970010A2
:10806000DFF800F08D970010DFF800F0299800107D
:10807000DFF800F0F5980010DFF800F0C999001063
:10808000DFF800F0F9990010DFF800F0159A001001
:10809000DFF800F0319A0010DFF800F0859A001048
:1080A000DFF800F0A19A0010DFF800F0F59A001058
:1080B000DFF800F0159C0010DFF800F08D9C001038
:1080C000DFF800F0099D0010DFF800F0459D00107A
:1080D000DFF800F0D19D0010DFF800F02D9E0010B9
:1080E000DFF800F04D9E0010DFF800F06D9E0010EC
:1080F000DFF800F08D9E0010DFF800F0AD9E00105C
:10810000DFF800F0CD9E0010DFF800F0ED9E0010CB
:10811000DFF800F00D9F0010DFF800F0499F00101D
:10812000DFF800F0699F0010DFF800F0D19F001029
:10813000DFF800F011A00010DFF800F031A000100F
:10814000DFF800F075A00010DFF800F0F1A00010DB
:10815000DFF800F009A10010DFF800F0B5A1001071
:10816000DFF800F0318D001010B5DFF8A84C20705A
:1081700002F0E0FB207802F095FD207803F018FC77
:1081800004F10C021021022004F010FE04F11C0284
:108190001021032004F00AFE221DBDE81040042136
:1081A000042004F003BE2DE9FE4388465FEA08413F
:1081B000DFF8600C77D5007804F024FF05006FD05D
:1081C000DFF8547CDFF8544C39680126002918BFC9
:1081D00011F1010F05D0207804F0B5FE4FF0FF300B
:1081E0003860287802284AD0032835D0812804D066
:1081F00082282DD0932847D04AE000208DF80860CF
:108200008DF80900AE88AF79AC78B00A3F2807D165
:10821000C6F3C21020B100F054F800F058F803E0A3
:1082200000F04FF800F09DF88146284604F07CFEEF
:108230009DF80800A0B3DFF8E80B01904B469DF8CD
:10824000090000903A463146204600F0D5F927E073
:10825000284600F051FC1EE0EF682889FFF7E8FE91
:10826000E86040B12A89394604F0FDFD20782946AE
:1082700004F069FE0026384605F053F90CE020783A
:10828000294604F060FE0BE0284600F0F8FC02E00E
:10829000284601F024FE064616B1284604F044FEA6
:1082A00088F400400BE05FEA484107D5021D042135
:1082B000042004F00AFD88F4804000E00020BDE8BE
:1082C000FE8302AB0DF1090229463046704710B516
:1082D00000F07F04C00900F00700012807D03ED35A
:1082E00003282FD008D3052835D030D337E02046D7
:1082F000BDE810401A463BE20889C968012C1DD030
:108300000B2C17D00D2C11D0132C0BD0192C05D001
:108310001E2C24D1BDE8104005F0BCB9BDE81040CA
:1083200005F089BABDE8104005F072BABDE810400A
:1083300005F040BABDE8104005F02EBABDE8104087
:1083400005F0D7B92046BDE810401A4657E220464E
:10835000BDE81040FFE22046BDE8104086E1012064
:1083600010BD0B4640F21D41401A00F09A8040F2C9
:10837000E471401A00F09880801E00F09B802A383B
:1083800000F09A80363800F0928040F29E31401A18
:1083900000F09780401E00F09680401E00F095800F
:1083A000801F00F094804FF47F71401A00F091809C
:1083B00040F6FC31401A00F08F80801E00F08F8064
:1083C000001F00F08E80083800F08D80401E00F005
:1083D0008C80401E00F08B80401E00F08D80801E3F
:1083E00000F08F80401E00F08F80401E00F08F80D4
:1083F000401E00F08F80401F00F09080401E00F073
:108400009480401E00F08C80401E00F092804DF65B
:10841000E231401A00F08F80401E00F09080C01EB4
:1084200000F09180401E00F09280401E00F092808B
:10843000401E00F09780401E00F09A80401E00F021
:108440009980401E00F09A80401E00F09980401EE6
:1084500000F09980401E00F09980C01E00F09880C6
:10846000801E00F09980401E00F09980401E00F0B0
:108470009B80801E00F09C80401E00F09E80801E2D
:108480006CD0401E00F09F80401E00F0A180401E76
:1084900000F0A180801E00F0A280401E00F0A580A8
:1084A000A8E01889FFF7C8BD9868FFF7C9BD9868AC
:1084B00005F026BB05F03EBA59891889C9B2FFF705
:1084C000C3BD05F089BB05F046BAFFF7C1BDFFF794
:1084D000C3BD1889FFF7C4BD986805F061BBFFF7FD
:1084E000C3BDFFF7C5BDFFF7C7BDFFF7C9BD1889FD
:1084F000D968C0B2FFF7C8BD1889D968C0B2FFF704
:10850000C7BD9868FFF7C8BD1889FFF7C9BD1889AE
:1085100005F0CFBAD9689868FFF7C6BDFFF7C8BDA8
:108520009A7A597A187A05F0D9BA1889C0B205F042
:10853000DEBAFFF7C1BD1889C0B2FFF7C1BD188907
:10854000C0B2FFF7C1BDD9689868FFF7C1BD986890
:10855000FFF7C2BD1889C0B2FFF7C2BD1889C0B20B
:10856000FFF7C2BD59891889C9B2C0B2FFF7C0BDB3
:10857000FFF7C2BD1889C0B2FFF7C2BDFFF7C4BD87
:108580009868FFF7C5BD1889FFF7C6BDFFF7C8BDDE
:108590001889C0B2FFF7C8BD1889FFF7C9BD59894E
:1085A0001889C9B2FFF7C8BDD9681889FFF7C8BDD7
:1085B00018895989C0B2FFF7C7BD59899A891889A6
:1085C000C9B205F0EBBA18895989C0B2FFF7C0BD2E
:1085D000188905F0D1BA1889C0B205F0B6BA598920
:1085E0001889C9B2C0B2FFF7B7BD1A69D9689868CF
:1085F00005F0BBB9012070472DE9F843089C80467F
:1086000004F10C000F461546994680B204F07AFC3E
:10861000060016D08020307086F8019040F27F600E
:108620007080B780B57106F10C00F471B06022461D
:10863000099904F018FC31464046BDE8F44304F0C3
:1086400082BCBDE8F1830022831E012B02D99B1E50
:1086500002D004E0102900E0042904D002E08038B0
:10866000102800D3022210467047000070B5401E4B
:10867000052882B00C461546DFF8186A3BD8DFE8BB
:1086800000F0030C15191D2900F037F880B9E268D5
:108690003146284604F08AFB76BD00F02EF838B942
:1086A000E2683146284604F010FB76BD05F0EFFA8B
:1086B000022076BDA06800F025F876BD05F0F8FA36
:1086C000B071010AF171010C000E70723172042058
:1086D00028700EE04FF6FF70ADF8000005F0EBFFDC
:1086E000ADF8000002220220287000A9B01D04F09D
:1086F000BAFB002076BD012076BD257A667A314628
:108700002846A0E770B1DFF890190160DFF88C19F6
:1087100009888180912181717F2101812C214181F2
:10872000002070470220704738B5012815461C46C6
:1087300002D0022809D00DE0049B0A4621462846B3
:1087400001B0BDE8304002F027BA0846BDE832402B
:1087500006F026BF0846BDE8324006F02FBF0B46A4
:1087600001281146184608BF02F052BA06F03DBF74
:1087700006280B4635D012283AD0142827D01528C1
:108780002AD0162830D070280AD071280BD0722831
:108790000CD073280ED0742810D0752813D02CE07C
:1087A000986807F055B8986806F0C0BF5989187ADC
:1087B00006F0DFBFD968188906F0EFBFDA68997A4A
:1087C000188907F002B8D968188907F031B89A8972
:1087D0005989188907F071B89A89997A188907F028
:1087E00097B8188907F0A7B85989188907F0B6B85B
:1087F0001A7CD968188907F0E2B80120704738B5AB
:108800000C460346E168227C2089022B1D462CD0B1
:10881000042B4DD0062B31D0082B45D00A2B4FD03E
:108820000C2B55D00E2B57D0102B22D0122B5FD0F3
:10883000162B61D01B2B00F082801D2B00F0838053
:10884000302B18BF322B20D0342B3DD0362B47D0C5
:10885000382B49D03A2B59D03C2B64D03E2B66D0D4
:10886000402B68D0422B47D073E0BDE8384002F07F
:108870001DBA1146BDE8344002F02EBA1346A27A62
:1088800001B0BDE8304002F04EBA6189A289A37BF5
:10889000302D04D101B0BDE8304002F074BA01B00F
:1088A000BDE8304002F07CBABDE8384002F090BA32
:1088B00013464A88098801B0BDE8304002F08BBAFF
:1088C000BDE8384002F0A5BABDE8384002F0A2BACF
:1088D000BDE8384002F0A1BABDE8384002F09EBAC7
:1088E000BDE8344002F0B0BABDE8344002F0BABA94
:1088F000BDE8384002F0CEBA162D04BFBDE83840BE
:1089000002F0C9BABDE8384002F00EBBE17A41B1CD
:10891000062906DA009201230A46E16802F0BCFA51
:1089200032BD022032BDBDE8384002F0FABABDE8DF
:10893000384002F0F7BABDE8384002F0F4BABDE8BA
:10894000384005F020BC637C01B0BDE8304005F044
:10895000EDBB012032BDF0B583B00F461446DFF801
:108960003457A8B303285AD004283CD005283ED059
:10897000062844D0072847D008284CD009283AD0E8
:108980000A2851D00B2859D00C286ED00D2800F0A1
:1089900092800E2863D00F285AD0102853D0112867
:1089A00048D030286BD0312872D0322862D033289A
:1089B00000F08680342800F08780352800F092800F
:1089C00036285FD0372800F0908038285AD090E0C1
:1089D0007869019038690090FB68BA7A797A387AB8
:1089E00007F05AF8FEBDB86807F08AF8FEBD387A7D
:1089F00007F0C6F8FEBDB86807F018FBFEBDF968C1
:108A0000387A07F037FCFEBDFB68BA7A797A387A93
:108A100007F083FCFEBD387A07F0B6FCFEBDF968AE
:108A2000387A07F0B5FFFEBD3A7B7989387A08F0CD
:108A300015F9FEBDB86808F04EF9FEBDF968B868D2
:108A400008F0A5F9FEBDB97A388908F0EDF9FEBD48
:108A50003B7CFA68B97A388908F034FAFEBDFA68C6
:108A6000B97A388908F06FF9FEBD3989F86808F0DD
:108A7000EAF9FEBDF968B86808F060FDFEBD388906
:108A80007989262833D0272831DA07F037FFFEBD51
:108A90004FF6FF76ADF800603889FF2827DA2628E0
:108AA00025D0272823DA07F037FFB042ADF80000C1
:108AB0001DD002200EE0B97A388908F081FDFEBD94
:108AC000B86807F087FCFEBD387A07F0B5FC009067
:108AD00068B104202070024600A9A81D04F0C3F963
:108AE0000020FEBD07F0B2FCFEBD00212170022077
:108AF000FEBD0120FEBD00002DE9F04F044683B00D
:108B0000A179A68894F80280DFF8887500254FF0D7
:108B1000010A894604F1080036B1022E31D00AD389
:108B2000042E67D051D391E01029AB46FBD10078D9
:108B300008F0F7FD47E00429AB4644D010291CD0CB
:108B4000112913D012290ED0132918BF142907D0C8
:108B5000152918BF162936D0172977D10A2009E020
:108B60004FF0020B73E008F0B7FE03E0A17A008833
:108B700008F088FEB871012569E0007808F0FCFE75
:108B800021E010390529AB4660D8DFE801F019165D
:108B9000120D0903E268A17A008805F06DFA53E02E
:108BA000006801F0D0FE0EE0A17A008801F0C5FE59
:108BB00009E0007802F076F805E002F033F843E0CF
:108BC000007801F0B7FEAA4641E079B1052902D04C
:108BD000062906D03AE041680088C0B209F052F890
:108BE00032E000F046F809F00DF82DE0006809F0D9
:108BF00064F829E029B302291CD0032915D00529DE
:108C000008D006290CD0122920D1A17A008803F0BF
:108C100067FE19E041680088C0B202F09EFF13E0D1
:108C200000F027F802F069FF0EE0E168008802F02A
:108C300043FF09E02369A27BA189006802F012FFCB
:108C400002E0006802F0E4FF834600E0D3462046DD
:108C500004F06AF9BAF1000F08D0B81D0190009530
:108C60005B464A4631464046FFF7C6FC0020BDE859
:108C7000FE8F426841880088C9B2C0B2704730B5E3
:108C800085B0044600208DF80000606810F8011BD4
:108C90008DF804104278017801EB0221ADF806103E
:108CA00081788DF80810C01C0390BDF80600C1093A
:108CB000012907D021D303290FD008D3052916D0C5
:108CC00010D31AE000F03AF800F0ACF813E001A974
:108CD00000F07F0000F0EAF90DE000F02FF800F05E
:108CE00089FC08E000F02AF800F0B4FE03E000F090
:108CF00025F800F028F8054600E00125204604F09C
:108D000013F9DFF890237F201070957006205070C3
:108D1000BDF80600D070000A40F0FC0010719DF80C
:108D2000000050719DF80000811D00F003F8002044
:108D300005B030BDC9B2FF20FFF712BA00AA01A9E1
:108D400000F07F0070472DE9F04115468C6884B033
:108D5000002601282E70CF4F06D055D3032831D0DE
:108D600016D3042832D04FE094F801802678B8F169
:108D7000320F29DA41463046FFF765FC20BBBA1DA9
:108D80004146304604F012F806003ED1607839E0E2
:108D900025786678FFF7B3FCB0B9A21C31462846A7
:108DA00003F093FF042D06462FD1A078E17800EB65
:108DB0000120217900EB0140617900EB0160154948
:108DC000486022E004F063FF02261EE000A8FFF7DF
:108DD00099FC0098B8717E73FE730098000AF871D0
:108DE0000098000C3872BDF804007872000AB8725E
:108DF0009DF80600F872BDF808003873BDF80A0047
:108E0000B8730A20287000E00126304604B0BDE89F
:108E1000F081000058470020E4470020AB480020C4
:108E2000BE4600202DE9F0430D4693B0AB68994F44
